:020000040800F2
:1000000000200020791600080D04000819040008DB
:100010002104000829040008310400080000000041
:10002000000000000000000000000000390400088B
:100030004504000800000000510400085D040008A9
:10004000C1160008C1160008C1160008C116000834
:10005000C1160008C1160008C1160008C116000824
:10006000C1160008C1160008C1160008C116000814
:10007000C1160008C1160008C1160008C116000804
:10008000C1160008C1160008C116000800000000D3
:10009000000000000000000000000000C116000881
:1000A000C1160008C1160008C1160008C1160008D4
:1000B000C1160008C1160008C1160008C1160008C4
:1000C000C1160008C1160008C1160008C1160008B4
:1000D000C1160008C1160008C1160008C1160008A4
:1000E000C1160008C1160008C11600080000000073
:1000F0000000000000000000000000000000000000
:1001000000000000000000000000000000000000EF
:100110000000000000000000C1160008C116000821
:1001200000000000000000000000000000000000CF
:1001300000000000000000000000000000000000BF
:1001400000000000000000000000000000000000AF
:10015000000000000000000000000000000000009F
:10016000000000000000000000000000000000008F
:10017000000000000000000000000000000000007F
:10018000000000000000000000000000000000006F
:10019000000000000000000000000000000000005F
:1001A000000000000000000000000000000000004F
:1001B000000000000000000000000000000000003F
:1001C0000000000000000000000000005FF808F1DF
:1001D00040F22803C2F200031A780AB9012018700D
:1001E000704700BF40F22800C2F2000008B5036863
:1001F0002BB140F20003C0F2000303B1984708BDE1
:1002000080B483B000AF03463960FB7197F90730C3
:10021000002B0DDA0E49FB7903F00F03A3F1040361
:100220003A68D2B24FEA0212D2B2CB181A760AE07A
:10023000084997F907303A68D2B24FEA0212D2B2AF
:10024000CB1883F8002307F10C07BD4680BC70472C
:1002500000ED00E000E100E080B582B000AF786022
:100260007A686FF07F439A4202D94FF0010316E09B
:100270000D4B7A6822F07F4202F1FF325A604FF054
:10028000FF304FF00F01FFF7BBFF074B4FF00002AD
:100290009A60054B4FF007021A604FF000031846B2
:1002A00007F10807BD4680BD10E000E080B400AF54
:1002B000064B1B68002B05D0044B1B6803F1FF3273
:1002C000024B1A60BD4680BC704700BF3000002062
:1002D00080B483B000AF78607A68064B1A6000BFC4
:1002E000044B1B68002BFBD107F10C07BD4680BCFB
:1002F000704700BF3000002080B500AF4FF07C0099
:100300004FF0010101F058F8114B4FF6FF721A80BF
:100310000F4B4FF00002DA700E480D4900F058FA0A
:100320000D480B4900F054FA0C48094900F050FA06
:100330000B48074900F04CFA0A48054900F048FA12
:100340004FF07C004FF0000101F036F880BD00BF97
:100350002C00002000080140000C0140001001406A
:10036000001401400018014080B582B000AFFFF7D3
:10037000C3FF1A4B1A681A4BA3FB02134FEA9313DD
:100380001846FFF769FF0346002B00D0FEE74FF049
:1003900010004FF0010101F00FF84FF44073BB80E3
:1003A0004FF01003FB714FF00303BB7107F104031F
:1003B0000C48194600F00CFA0A4B4FF400721A610F
:1003C0004FF47A70FFF784FF064B4FF400725A61C6
:1003D0004FF47A70FFF77CFFEEE700BF00000020CB
:1003E000D34D62100010014080B483B000AF78603C
:1003F00003E07B6803F1FF337B607B68002BF8D15F
:1004000007F10C07BD4680BC704700BF80B400AF49
:10041000BD4680BC704700BF80B400AFFEE700BFA0
:1004200080B400AFFEE700BF80B400AFFEE700BFBE
:1004300080B400AFFEE700BF80B400AFBD4680BC13
:10044000704700BF80B400AFBD4680BC704700BF9E
:1004500080B400AFBD4680BC704700BF80B500AF20
:10046000FFF724FF80BD00BF80B500AF154B154AD4
:10047000126842F001021A60124A124B5968124B7C
:1004800001EA030353600F4A0E4B1B6823F0847389
:1004900023F4803313600B4B0A4A126822F4802243
:1004A0001A60084B074A526822F4FE025A60054B54
:1004B0004FF41F029A60034B4FF00002DA6200F023
:1004C00077F880BD001002400000FFF880B485B0CE
:1004D00000AF4FF00003FB604FF00003BB604FF034
:1004E00000037B604FF000033B602C4B5B6803F024
:1004F0000C03FB60FB68042B07D0082B09D0002BF2
:1005000032D1274B274A1A6032E0254B254A1A6020
:100510002EE0224B5B6803F47013BB601F4B5B68DB
:1005200003F480337B60BB684FEA934303F102031B
:10053000BB607B68002B06D1BB681B4A02FB03F241
:10054000174B1A6014E0154BDB6A03F00F0303F13D
:1005500001033B60134A3B68B2FBF3F3BA6802FB4A
:1005600003F20F4B1A6003E00D4B0E4A1A6000BFF6
:100570000A4B5B6803F0F0034FEA13130B4AD35C9A
:10058000DBB2FB60064B1A68FB6822FA03F2044BED
:100590001A6007F11407BD4680BC70470010024086
:1005A0000000002000127A0000093D000400002035
:1005B00080B500AF00F002F880BD00BF80B483B00A
:1005C00000AF4FF000037B604FF000033B60314B06
:1005D000304A126842F480321A602E4B1B6803F4D2
:1005E00000333B607B6803F101037B603B68002BB9
:1005F00003D17B68B3F5A06FEFD1264B1B6803F4E2
:100600000033002B03D04FF001033B6002E04FF0BA
:1006100000033B603B68012B37D11E4B1D4A5268DB
:100620005A601C4B1B4A52685A601A4B194A52684E
:100630005A60184B174A526822F47C125A60154BC4
:10064000144A526842F498125A60124B114A1268C6
:1006500042F080721A6000BF0E4B1B6803F00073FB
:10066000002BF9D00B4B0B4A526822F003025A6060
:10067000084B084A526842F002025A6000BF054B1C
:100680005B6803F00C03082BF9D107F10C07BD469A
:1006900080BC70470010024080B582B000AF786027
:1006A0007A683C4B9A420CD14FF004004FF00101A4
:1006B00000F0C6FE4FF004004FF0000100F0C0FE55
:1006C00064E07A68344B9A420CD14FF008004FF046
:1006D000010100F0B5FE4FF008004FF0000100F0FE
:1006E000AFFE53E07A682D4B9A420CD14FF01000C8
:1006F0004FF0010100F0A4FE4FF010004FF0000198
:1007000000F09EFE42E07A68254B9A420CD14FF0F1
:1007100020004FF0010100F093FE4FF020004FF059
:10072000000100F08DFE31E07A681E4B9A420CD138
:100730004FF040004FF0010100F082FE4FF040000A
:100740004FF0000100F07CFE20E07A68164B9A42E0
:100750000CD14FF080004FF0010100F071FE4FF01E
:1007600080004FF0000100F06BFE0FE07A680F4B45
:100770009A420BD14FF480704FF0010100F060FEFF
:100780004FF480704FF0000100F05AFE07F10807A7
:10079000BD4680BD00080140000C01400010014032
:1007A0000014014000180140001C014000200140DD
:1007B00080B500AF4FF001004FF0010100F040FEA6
:1007C0004FF001004FF0000100F03AFE80BD00BF85
:1007D00080B489B000AF786039604FF00003FB61EE
:1007E0004FF000033B614FF00003BB614FF000038B
:1007F000FB604FF000037B614FF00003BB603B6880
:10080000DB7803F00F03FB613B68DB7803F0100338
:10081000002B05D03B689B78FA6942EA0303FB6131
:100820003B681B8803F0FF03002B51D07B681B68DB
:100830007B614FF00003BB6144E0BB694FF00102F4
:1008400002FA03F3FB603B681B881A46FB6802EA66
:1008500003033B613A69FB689A422FD1BB694FEAB7
:100860008303FB60FB684FF00F0202FA03F3BB60E7
:10087000BB686FEA03037A6902EA03037B61FB68E2
:10088000FA6902FA03F37A6942EA03037B613B687F
:10089000DB78282B07D1BB694FF0010202FA03F283
:1008A0007B685A610AE03B68DB78482B06D1BB695C
:1008B0004FF0010202FA03F27B681A61BB6903F18F
:1008C0000103BB61BB69072BB7D97B687A691A60E2
:1008D0003B681B88FF2B56D97B685B687B614FF0B8
:1008E0000003BB6149E0BB6903F108034FF001025B
:1008F00002FA03F3FB603B681B881A46FB6802EAB6
:1009000003033B613A69FB689A4232D1BB694FEA03
:100910008303FB60FB684FF00F0202FA03F3BB6036
:10092000BB686FEA03037A6902EA03037B61FB6831
:10093000FA6902FA03F37A6942EA03037B613B68CE
:10094000DB78282B08D1BB6903F108034FF00102C3
:1009500002FA03F27B685A613B68DB78482B08D1C6
:10096000BB6903F108034FF0010202FA03F27B684E
:100970001A61BB6903F10103BB61BB69072BB2D9E3
:100980007B687A695A6007F12407BD4680BC7047CE
:1009900080B483B000AF78607B684FF6FF721A8036
:1009A0007B684FF002029A707B684FF00402DA70A5
:1009B00007F10C07BD4680BC704700BF80B485B00E
:1009C00000AF78600B467B804FF00003FB737B68C1
:1009D0009A687B8802EA0303002B03D04FF00103DF
:1009E000FB7302E04FF00003FB73FB7B184607F13B
:1009F0001407BD4680BC704780B483B000AF7860F8
:100A00007B689B689BB2184607F10C07BD4680BC0B
:100A1000704700BF80B485B000AF78600B467B8024
:100A20004FF00003FB737B68DA687B8802EA0303FC
:100A3000002B03D04FF00103FB7302E04FF00003E3
:100A4000FB73FB7B184607F11407BD4680BC70475B
:100A500080B483B000AF78607B68DB689BB21846D7
:100A600007F10C07BD4680BC704700BF80B483B05F
:100A700000AF78600B467B807A887B681A6107F14B
:100A80000C07BD4680BC704780B483B000AF78606F
:100A90000B467B807A887B685A6107F10C07BD465C
:100AA00080BC704780B483B000AF786013460A46BC
:100AB0007A807B707B78002B03D07A887B681A6100
:100AC00002E07A887B685A6107F10C07BD4680BC5A
:100AD000704700BF80B483B000AF78600B467B8066
:100AE0007A887B68DA6007F10C07BD4680BC7047E6
:100AF00080B485B000AF78600B467B804FF48033C4
:100B0000FB607B88FA6842EA0303FB607B68FA6853
:100B10009A617A887B689A617B68FA689A617B68D7
:100B20009B69FB607B689B69FB6007F11407BD460E
:100B300080BC704780B485B000AF02460B46FA71A6
:100B4000BB714FF00003FB600E4B1B68FB60FA6843
:100B50004FF6807302EA0303FB60FB794FEA03134D
:100B6000FA6842EA0303FB60BB79FA6842EA0303CE
:100B7000FB60044BFA681A6007F11407BD4680BC9D
:100B8000704700BF0000014080B483B000AF03464F
:100B9000FB71044BFA791A6007F10C07BD4680BC63
:100BA000704700BF1C00204280B487B000AF78605F
:100BB0000B46FB704FF000033B614FF00003FB60FE
:100BC0004FF000037B614FF00003BB607B68002B9C
:100BD00003DA354BDB697B6102E0334B5B687B6199
:100BE0007B6803F470234FEA1343BB607B684FEAD2
:100BF00003434FEA13433B617B6803F44013B3F5AF
:100C0000401F0AD17B6923F070637B61264B264A23
:100C1000526822F070625A6028E07B6803F4801307
:100C2000002B11D0BB684FF0030202FA03F3FB6004
:100C3000FB686FEA03037A6902EA03037B617B695D
:100C400043F070637B6111E07B684FEA53534FEAD6
:100C500003133A6902FA03F36FEA03037A6902EABB
:100C600003037B617B6943F070637B61FB78002B3E
:100C70000BD07B684FEA53534FEA03133A6902FAE9
:100C800003F37A6942EA03037B617B68002B03DA92
:100C9000054B7A69DA6102E0034B7A695A6007F121
:100CA0001C07BD4680BC70470000014090B484B072
:100CB00000AF02460B46FA71BB714FF00003FB60B8
:100CC000BB7903F003034FEA83034FF00F0202FAEC
:100CD00003F3FB601B4BBA794FEA9202D2B2194977
:100CE000B8794FEA9000C0B200F1020051F820003C
:100CF000F9686FEA010100EA010102F1020243F81A
:100D00002210104BBA794FEA9202D2B20D49B8794B
:100D10004FEA9000C0B200F1020051F82000FC79C7
:100D2000B97901F003014FEA810104FA01F140EAC7
:100D3000010102F1020243F8221007F11007BD463B
:100D400090BC70470000014080B483B000AF786071
:100D5000034B7A681A6007F10C07BD4680BC7047E8
:100D6000DC00204280B400AF154B154A126842F0F7
:100D700001021A60124A124B5968124B01EA03032E
:100D800053600F4A0E4B1B6823F0847323F48033A7
:100D900013600B4B0A4A126822F480221A60084B37
:100DA000074A526822F4FE025A60054B4FF41F02B4
:100DB0009A60034B4FF00002DA62BD4680BC704778
:100DC000001002400000FFF880B483B000AF7860EC
:100DD000134B134A126822F480321A60104B104AE7
:100DE000126822F480221A607B68B3F5803F03D03A
:100DF000B3F5802F07D00DE0094B094A126842F481
:100E000080321A6006E0064B054A126842F4A022BE
:100E10001A6000BF07F10C07BD4680BC704700BFD9
:100E20000010024080B582B000AF4FF000033B607D
:100E30004FF00003FB714FF00003BB714FF0310026
:100E400000F072FB0346BB713B6803F101033B609A
:100E50003B68B3F5A06F02D0BB79002BEED04FF00A
:100E6000310000F061FB0346002B03D04FF001037B
:100E7000FB7102E04FF00003FB71FB79184607F1AC
:100E80000807BD4680BD00BF80B485B000AF0346F3
:100E9000FB714FF00003FB600A4B1B68FB60FB68B3
:100EA00023F0F803FB60FB794FEAC303FA6842EAD8
:100EB0000303FB60034BFA681A6007F11407BD4691
:100EC00080BC70470010024080B483B000AF03467E
:100ED000FB71044BFA791A6007F10C07BD4680BC20
:100EE000704700BF0000424280B485B000AF786018
:100EF00039604FF00003FB600B4B5B68FB60FB68E5
:100F000023F47413FB607A683B6842EA0303FA68CF
:100F100042EA0303FB60044BFA685A6007F11407C6
:100F2000BD4680BC704700BF0010024080B483B053
:100F300000AF0346FB71044BFA791A6007F10C0706
:100F4000BD4680BC704700BF6000424280B485B09F
:100F500000AF786039604FF00003FB600C4BDB6A38
:100F6000FB60FB6823F4803323F00F03FB607A6897
:100F70003B6842EA0303FA6842EA0303FB60044B5E
:100F8000FA68DA6207F11407BD4680BC704700BFFB
:100F90000010024080B485B000AF78604FF00003CD
:100FA000FB600A4B5B68FB60FB6823F00303FB609C
:100FB000FA687B6842EA0303FB60044BFA685A60F4
:100FC00007F11407BD4680BC704700BF0010024007
:100FD00080B400AF044B5B68DBB203F00C03DBB200
:100FE0001846BD4680BC70470010024080B485B0F2
:100FF00000AF78604FF00003FB600A4B5B68FB605A
:10100000FB6823F0F003FB60FA687B6842EA0303A5
:10101000FB60044BFA685A6007F11407BD4680BCB8
:10102000704700BF0010024080B485B000AF786008
:101030004FF00003FB600A4B5B68FB60FB6823F426
:10104000E063FB60FA687B6842EA0303FB60044BE1
:10105000FA685A6007F11407BD4680BC704700BFAC
:101060000010024080B485B000AF78604FF00003FC
:10107000FB600B4B5B68FB60FB6823F46053FB6019
:101080007B684FEAC303FA6842EA0303FB60044B40
:10109000FA685A6007F11407BD4680BC704700BF6C
:1010A0000010024080B483B000AF02460B46FA71D4
:1010B000BB71BB79002B09D00D4B0D4A1278D1B210
:1010C000FA7941EA0202D2B21A700BE0084B084AE0
:1010D0001278D1B2FA796FEA0202D2B201EA0202C0
:1010E000D2B21A7007F10C07BD4680BC704700BF32
:1010F0000910024080B483B000AF7860034B7A6877
:101100001A6007F10C07BD4680BC7047D800424208
:1011100080B485B000AF78604FF00003FB600A4BED
:101120005B68FB60FB6823F44043FB60FA687B6804
:1011300042EA0303FB60044BFA685A6007F11407A4
:10114000BD4680BC704700BF0010024080B483B031
:1011500000AF0346FB710E4B4FF000021A700C4BB0
:101160004FF000021A70FB79012B02D0042B05D03E
:1011700009E0074B4FF001021A7004E0044B4FF0F6
:1011800005021A7000BF07F10C07BD4680BC70470E
:101190002010024080B483B000AF0346FB71044BC3
:1011A000FA791A6007F10C07BD4680BC704700BF92
:1011B0008004424280B483B000AF7860054B054A9A
:1011C000116A7A6841EA02021A6207F10C07BD4609
:1011D00080BC70470010024080B483B000AF03466B
:1011E000FB71044BFA791A6007F10C07BD4680BC0D
:1011F000704700BF3C04424280B489B000AF7860C1
:101200004FF00003FB614FF00003BB614FF00003A0
:101210007B614FF000033B614FF00003FB60504BDC
:101220005B6803F00C03FB61FB69042B07D0082B00
:1012300009D0002B32D17B684A4A1A6032E07B68C1
:10124000484A1A602EE0464B5B6803F47013BB619A
:10125000434B5B6803F480337B61BB694FEA934384
:1012600003F10203BB617B69002B06D1BB693E4AD7
:1012700002FB03F27B681A6014E0394BDB6A03F06F
:101280000F0303F10103FB60364AFB68B2FBF3F383
:10129000BA6902FB03F27B681A6003E07B68314A9B
:1012A0001A6000BF2E4B5B6803F0F003FB61FB6923
:1012B0004FEA1313FB612D4AFB69D3181B78DBB28D
:1012C0003B617B681A683B6922FA03F27B685A60CB
:1012D000234B5B6803F4E063FB61FB694FEA132374
:1012E000FB61224AFB69D3181B78DBB23B617B6848
:1012F0005A683B6922FA03F27B689A60184B5B6874
:1013000003F46053FB61FB694FEAD323FB61174A87
:10131000FB69D3181B78DBB23B617B685A683B6979
:1013200022FA03F27B68DA600D4B5B6803F44043FA
:10133000FB61FB694FEA9333FB610D4AFB69D318EC
:101340001B78DBB23B617B68DA683B69B2FBF3F286
:101350007B681A6107F12407BD4680BC704700BF57
:101360000010024000127A0000093D001400002025
:101370002400002080B483B000AF78600B46FB707F
:10138000FB78002B07D00B4B0A4A51697A6841EA77
:1013900002025A6108E0074B064A51697A686FEA0F
:1013A000020201EA02025A6107F10C07BD4680BC45
:1013B000704700BF0010024080B483B000AF786077
:1013C0000B46FB70FB78002B07D00B4B0A4A916948
:1013D0007A6841EA02029A6108E0074B064A91697D
:1013E0007A686FEA020201EA02029A6107F10C07C9
:1013F000BD4680BC704700BF0010024080B483B07F
:1014000000AF78600B46FB70FB78002B07D00B4BCE
:101410000A4AD1697A6841EA0202DA6108E0074BB8
:10142000064AD1697A686FEA020201EA0202DA61C9
:1014300007F10C07BD4680BC704700BF001002409A
:1014400080B483B000AF78600B46FB70FB78002B54
:1014500007D00B4B0A4AD1687A6841EA0202DA6087
:1014600008E0074B064AD1687A686FEA020201EA8F
:101470000202DA6007F10C07BD4680BC704700BF6E
:101480000010024080B483B000AF78600B46FB7060
:10149000FB78002B07D00B4B0A4A11697A6841EAA6
:1014A00002021A6108E0074B064A11697A686FEA7E
:1014B000020201EA02021A6107F10C07BD4680BC74
:1014C000704700BF0010024080B483B000AF0346F5
:1014D000FB71044BFA791A6007F10C07BD4680BC1A
:1014E000704700BF4004424280B483B000AF03465F
:1014F000FB71044BFA791A6007F10C07BD4680BCFA
:10150000704700BF4C00424280B483B000AF034636
:10151000FB71044BFA791A7007F10C07BD4680BCC9
:10152000704700BF0710024080B487B000AF034689
:10153000FB714FF00003FB604FF000037B614FF045
:101540000003FB74FB794FEA5313DBB2FB60FB68CB
:10155000012B03D1144B1B687B6109E0FB68022B54
:1015600003D1114B1B6A7B6102E00F4B5B6A7B610D
:10157000FB7903F01F03FB60FB687A6922FA03F32F
:1015800003F00103DBB2002B03D04FF00103FB7427
:1015900002E04FF00003FB74FB7C184607F11C07C8
:1015A000BD4680BC704700BF0010024080B400AF51
:1015B000044B044A526A42F080725A62BD4680BCB3
:1015C000704700BF0010024080B485B000AF0346F2
:1015D000FB714FF00003FB730A4B9A68FB7902EA38
:1015E0000303002B03D04FF00103FB7302E04FF025
:1015F0000003FB73FB7B184607F11407BD4680BC54
:10160000704700BF0010024080B483B000AF0346B3
:10161000FB71044BFA791A7007F10C07BD4680BCC8
:10162000704700BF0A10024070B541F2DC6641F21B
:10163000DC65C0F60006C0F60005761BB61006D0C5
:10164000002455F8043B01349847A642F9D141F2F1
:10165000E06641F2DC65C0F60006C0F60005761BC8
:1016600000F030F8B61006D0002455F8043B0134E1
:101670009847A642F9D170BD002103E00B4B5B589F
:10168000435004310A480B4B42189A42F6D30A4A97
:1016900002E0002342F8043B084B9A42F9D3FEF7DC
:1016A000E3FEFFF7C1FFFEF75FFE7047E416000898
:1016B0000000002028000020280000203400002026
:1016C000FEE70000F8B500BFF8BC08BC9E467047B6
:0C16D000F8B500BFF8BC08BC9E4670478F
:0416DC00E50100081C
:0416E000D10100082C
:1016E40000366E0100000000000000000102030447
:1016F40006070809000000000102030401020304B4
:081704000607080902040608AB
:040000050800167960
:00000001FF
